{
  "_format": "hh-sol-artifact-1",
  "contractName": "P00lSocialRegistry",
  "sourceName": "contracts/tokens/P00lSocialRegistry.sol",
  "abi": [
    {
      "inputs": [
        {
          "internalType": "address",
          "name": "_admin",
          "type": "address"
        },
        {
          "internalType": "string",
          "name": "_name",
          "type": "string"
        },
        {
          "internalType": "string",
          "name": "_symbol",
          "type": "string"
        }
      ],
      "stateMutability": "nonpayable",
      "type": "constructor"
    },
    {
      "anonymous": false,
      "inputs": [
        {
          "indexed": true,
          "internalType": "address",
          "name": "owner",
          "type": "address"
        },
        {
          "indexed": true,
          "internalType": "address",
          "name": "approved",
          "type": "address"
        },
        {
          "indexed": true,
          "internalType": "uint256",
          "name": "tokenId",
          "type": "uint256"
        }
      ],
      "name": "Approval",
      "type": "event"
    },
    {
      "anonymous": false,
      "inputs": [
        {
          "indexed": true,
          "internalType": "address",
          "name": "owner",
          "type": "address"
        },
        {
          "indexed": true,
          "internalType": "address",
          "name": "operator",
          "type": "address"
        },
        {
          "indexed": false,
          "internalType": "bool",
          "name": "approved",
          "type": "bool"
        }
      ],
      "name": "ApprovalForAll",
      "type": "event"
    },
    {
      "anonymous": false,
      "inputs": [
        {
          "indexed": true,
          "internalType": "address",
          "name": "from",
          "type": "address"
        },
        {
          "indexed": true,
          "internalType": "address",
          "name": "to",
          "type": "address"
        },
        {
          "indexed": true,
          "internalType": "uint256",
          "name": "tokenId",
          "type": "uint256"
        }
      ],
      "name": "Transfer",
      "type": "event"
    },
    {
      "inputs": [
        {
          "internalType": "address",
          "name": "to",
          "type": "address"
        },
        {
          "internalType": "uint256",
          "name": "tokenId",
          "type": "uint256"
        }
      ],
      "name": "approve",
      "outputs": [],
      "stateMutability": "nonpayable",
      "type": "function"
    },
    {
      "inputs": [
        {
          "internalType": "address",
          "name": "owner",
          "type": "address"
        }
      ],
      "name": "balanceOf",
      "outputs": [
        {
          "internalType": "uint256",
          "name": "",
          "type": "uint256"
        }
      ],
      "stateMutability": "view",
      "type": "function"
    },
    {
      "inputs": [
        {
          "internalType": "address",
          "name": "owner",
          "type": "address"
        },
        {
          "internalType": "string",
          "name": "name",
          "type": "string"
        },
        {
          "internalType": "string",
          "name": "symbol",
          "type": "string"
        },
        {
          "internalType": "bytes32",
          "name": "root",
          "type": "bytes32"
        }
      ],
      "name": "createToken",
      "outputs": [
        {
          "internalType": "address",
          "name": "",
          "type": "address"
        }
      ],
      "stateMutability": "nonpayable",
      "type": "function"
    },
    {
      "inputs": [
        {
          "internalType": "uint256",
          "name": "tokenId",
          "type": "uint256"
        }
      ],
      "name": "getApproved",
      "outputs": [
        {
          "internalType": "address",
          "name": "",
          "type": "address"
        }
      ],
      "stateMutability": "view",
      "type": "function"
    },
    {
      "inputs": [
        {
          "internalType": "address",
          "name": "owner",
          "type": "address"
        },
        {
          "internalType": "address",
          "name": "operator",
          "type": "address"
        }
      ],
      "name": "isApprovedForAll",
      "outputs": [
        {
          "internalType": "bool",
          "name": "",
          "type": "bool"
        }
      ],
      "stateMutability": "view",
      "type": "function"
    },
    {
      "inputs": [],
      "name": "name",
      "outputs": [
        {
          "internalType": "string",
          "name": "",
          "type": "string"
        }
      ],
      "stateMutability": "view",
      "type": "function"
    },
    {
      "inputs": [],
      "name": "owner",
      "outputs": [
        {
          "internalType": "address",
          "name": "",
          "type": "address"
        }
      ],
      "stateMutability": "view",
      "type": "function"
    },
    {
      "inputs": [
        {
          "internalType": "uint256",
          "name": "tokenId",
          "type": "uint256"
        }
      ],
      "name": "ownerOf",
      "outputs": [
        {
          "internalType": "address",
          "name": "",
          "type": "address"
        }
      ],
      "stateMutability": "view",
      "type": "function"
    },
    {
      "inputs": [],
      "name": "ownershipRegistry",
      "outputs": [
        {
          "internalType": "contract IERC721",
          "name": "",
          "type": "address"
        }
      ],
      "stateMutability": "view",
      "type": "function"
    },
    {
      "inputs": [
        {
          "internalType": "address",
          "name": "from",
          "type": "address"
        },
        {
          "internalType": "address",
          "name": "to",
          "type": "address"
        },
        {
          "internalType": "uint256",
          "name": "tokenId",
          "type": "uint256"
        }
      ],
      "name": "safeTransferFrom",
      "outputs": [],
      "stateMutability": "nonpayable",
      "type": "function"
    },
    {
      "inputs": [
        {
          "internalType": "address",
          "name": "from",
          "type": "address"
        },
        {
          "internalType": "address",
          "name": "to",
          "type": "address"
        },
        {
          "internalType": "uint256",
          "name": "tokenId",
          "type": "uint256"
        },
        {
          "internalType": "bytes",
          "name": "_data",
          "type": "bytes"
        }
      ],
      "name": "safeTransferFrom",
      "outputs": [],
      "stateMutability": "nonpayable",
      "type": "function"
    },
    {
      "inputs": [
        {
          "internalType": "address",
          "name": "operator",
          "type": "address"
        },
        {
          "internalType": "bool",
          "name": "approved",
          "type": "bool"
        }
      ],
      "name": "setApprovalForAll",
      "outputs": [],
      "stateMutability": "nonpayable",
      "type": "function"
    },
    {
      "inputs": [
        {
          "internalType": "string",
          "name": "baseURI",
          "type": "string"
        }
      ],
      "name": "setBaseURI",
      "outputs": [],
      "stateMutability": "nonpayable",
      "type": "function"
    },
    {
      "inputs": [
        {
          "internalType": "uint256",
          "name": "tokenId",
          "type": "uint256"
        },
        {
          "internalType": "string",
          "name": "_tokenURI",
          "type": "string"
        }
      ],
      "name": "setTokenURI",
      "outputs": [],
      "stateMutability": "nonpayable",
      "type": "function"
    },
    {
      "inputs": [
        {
          "internalType": "bytes4",
          "name": "interfaceId",
          "type": "bytes4"
        }
      ],
      "name": "supportsInterface",
      "outputs": [
        {
          "internalType": "bool",
          "name": "",
          "type": "bool"
        }
      ],
      "stateMutability": "view",
      "type": "function"
    },
    {
      "inputs": [],
      "name": "symbol",
      "outputs": [
        {
          "internalType": "string",
          "name": "",
          "type": "string"
        }
      ],
      "stateMutability": "view",
      "type": "function"
    },
    {
      "inputs": [],
      "name": "template",
      "outputs": [
        {
          "internalType": "contract P00lSocialToken",
          "name": "",
          "type": "address"
        }
      ],
      "stateMutability": "view",
      "type": "function"
    },
    {
      "inputs": [
        {
          "internalType": "uint256",
          "name": "tokenId",
          "type": "uint256"
        }
      ],
      "name": "tokenURI",
      "outputs": [
        {
          "internalType": "string",
          "name": "",
          "type": "string"
        }
      ],
      "stateMutability": "view",
      "type": "function"
    },
    {
      "inputs": [
        {
          "internalType": "address",
          "name": "from",
          "type": "address"
        },
        {
          "internalType": "address",
          "name": "to",
          "type": "address"
        },
        {
          "internalType": "uint256",
          "name": "tokenId",
          "type": "uint256"
        }
      ],
      "name": "transferFrom",
      "outputs": [],
      "stateMutability": "nonpayable",
      "type": "function"
    },
    {
      "inputs": [
        {
          "internalType": "address",
          "name": "newOwner",
          "type": "address"
        }
      ],
      "name": "transferOwnership",
      "outputs": [],
      "stateMutability": "nonpayable",
      "type": "function"
    }
  ],
  "bytecode": "0x60c06040523480156200001157600080fd5b50604051620043423803806200434283398101604081905262000034916200037c565b30828281600090805190602001906200004f92919062000215565b5080516200006590600190602084019062000215565b50505060601b6001600160601b0319166080526040516200008690620002a4565b604051809103906000f080158015620000a3573d6000803e3d6000fd5b5060601b6001600160601b03191660a052620000c08330620000c9565b5050506200047a565b6001600160a01b038216620001255760405162461bcd60e51b815260206004820181905260248201527f4552433732313a206d696e7420746f20746865207a65726f206164647265737360448201526064015b60405180910390fd5b6000818152600260205260409020546001600160a01b0316156200018c5760405162461bcd60e51b815260206004820152601c60248201527f4552433732313a20746f6b656e20616c7265616479206d696e7465640000000060448201526064016200011c565b6001600160a01b0382166000908152600360205260408120805460019290620001b790849062000402565b909155505060008181526002602052604080822080546001600160a01b0319166001600160a01b03861690811790915590518392907fddf252ad1be2c89b69c2b068fc378daa952ba7f163c4a11628f55a4df523b3ef908290a45050565b828054620002239062000427565b90600052602060002090601f01602090048101928262000247576000855562000292565b82601f106200026257805160ff191683800117855562000292565b8280016001018555821562000292579182015b828111156200029257825182559160200191906001019062000275565b50620002a0929150620002b2565b5090565b611e4a80620024f883390190565b5b80821115620002a05760008155600101620002b3565b600082601f830112620002da578081fd5b81516001600160401b0380821115620002f757620002f762000464565b604051601f8301601f19908116603f0116810190828211818310171562000322576200032262000464565b816040528381526020925086838588010111156200033e578485fd5b8491505b8382101562000361578582018301518183018401529082019062000342565b838211156200037257848385830101525b9695505050505050565b60008060006060848603121562000391578283fd5b83516001600160a01b0381168114620003a8578384fd5b60208501519093506001600160401b0380821115620003c5578384fd5b620003d387838801620002c9565b93506040860151915080821115620003e9578283fd5b50620003f886828701620002c9565b9150509250925092565b600082198211156200042257634e487b7160e01b81526011600452602481fd5b500190565b600181811c908216806200043c57607f821691505b602082108114156200045e57634e487b7160e01b600052602260045260246000fd5b50919050565b634e487b7160e01b600052604160045260246000fd5b60805160601c60a05160601c61203d620004bb6000396000818161028c01526107d901526000818161023f01528181610a910152610e72015261203d6000f3fe608060405234801561001057600080fd5b506004361061016c5760003560e01c80636352211e116100cd578063a22cb46511610081578063c87b56dd11610066578063c87b56dd14610305578063e985e9c514610318578063f2fde38b1461035457600080fd5b8063a22cb465146102df578063b88d4fde146102f257600080fd5b806370a08231116100b257806370a08231146102ae5780638da5cb5b146102cf57806395d89b41146102d757600080fd5b80636352211e146102745780636f2ddd931461028757600080fd5b806323b872dd1161012457806342842e0e1161010957806342842e0e14610227578063522a4fd01461023a57806355f804b31461026157600080fd5b806323b872dd146102015780632730b7f61461021457600080fd5b8063081812fc11610155578063081812fc146101ae578063095ea7b3146101d9578063162094c4146101ee57600080fd5b806301ffc9a71461017157806306fdde0314610199575b600080fd5b61018461017f366004611ce9565b610367565b60405190151581526020015b60405180910390f35b6101a1610404565b6040516101909190611eab565b6101c16101bc366004611d54565b610496565b6040516001600160a01b039091168152602001610190565b6101ec6101e7366004611cbe565b610530565b005b6101ec6101fc366004611d6c565b610662565b6101ec61020f366004611b48565b6106d9565b6101c1610222366004611c36565b610760565b6101ec610235366004611b48565b61089d565b6101c17f000000000000000000000000000000000000000000000000000000000000000081565b6101ec61026f366004611d21565b6108b8565b6101c1610282366004611d54565b61093b565b6101c17f000000000000000000000000000000000000000000000000000000000000000081565b6102c16102bc366004611ad8565b6109c6565b604051908152602001610190565b6101c1610a60565b6101a1610b18565b6101ec6102ed366004611c05565b610b27565b6101ec610300366004611b88565b610bec565b6101a1610313366004611d54565b610c7a565b610184610326366004611b10565b6001600160a01b03918216600090815260056020908152604080832093909416825291909152205460ff1690565b6101ec610362366004611ad8565b610e00565b60006001600160e01b031982167f80ac58cd0000000000000000000000000000000000000000000000000000000014806103ca57506001600160e01b031982167f5b5e139f00000000000000000000000000000000000000000000000000000000145b806103fe57507f01ffc9a7000000000000000000000000000000000000000000000000000000006001600160e01b03198316145b92915050565b60606000805461041390611f2d565b80601f016020809104026020016040519081016040528092919081815260200182805461043f90611f2d565b801561048c5780601f106104615761010080835404028352916020019161048c565b820191906000526020600020905b81548152906001019060200180831161046f57829003601f168201915b5050505050905090565b6000818152600260205260408120546001600160a01b03166105145760405162461bcd60e51b815260206004820152602c60248201527f4552433732313a20617070726f76656420717565727920666f72206e6f6e657860448201526b34b9ba32b73a103a37b5b2b760a11b60648201526084015b60405180910390fd5b506000908152600460205260409020546001600160a01b031690565b600061053b8261093b565b9050806001600160a01b0316836001600160a01b031614156105c55760405162461bcd60e51b815260206004820152602160248201527f4552433732313a20617070726f76616c20746f2063757272656e74206f776e6560448201527f7200000000000000000000000000000000000000000000000000000000000000606482015260840161050b565b336001600160a01b03821614806105e157506105e18133610326565b6106535760405162461bcd60e51b815260206004820152603860248201527f4552433732313a20617070726f76652063616c6c6572206973206e6f74206f7760448201527f6e6572206e6f7220617070726f76656420666f7220616c6c0000000000000000606482015260840161050b565b61065d8383610f11565b505050565b61066b8261093b565b6001600160a01b0316336001600160a01b0316146106cb5760405162461bcd60e51b815260206004820152601e60248201527f4552433732313a204f6e6c79206f776e65722063616e20736574205552490000604482015260640161050b565b6106d58282610f8c565b5050565b6106e33382611035565b6107555760405162461bcd60e51b815260206004820152603160248201527f4552433732313a207472616e736665722063616c6c6572206973206e6f74206f60448201527f776e6572206e6f7220617070726f766564000000000000000000000000000000606482015260840161050b565b61065d83838361105b565b60003361076b610a60565b6001600160a01b0316146107d25760405162461bcd60e51b815260206004820152602860248201527f52656769737472794f776e61626c653a2063616c6c6572206973206e6f74207460448201526734329037bbb732b960c11b606482015260840161050b565b60006107fd7f0000000000000000000000000000000000000000000000000000000000000000611235565b6040517f995314c70000000000000000000000000000000000000000000000000000000081529091506001600160a01b0382169063995314c79061084d908a908a908a908a908a90600401611e71565b600060405180830381600087803b15801561086757600080fd5b505af115801561087b573d6000803e3d6000fd5b5050505061089288826001600160a01b03166112f0565b979650505050505050565b61065d83838360405180602001604052806000815250610bec565b336108c1610a60565b6001600160a01b0316146109285760405162461bcd60e51b815260206004820152602860248201527f52656769737472794f776e61626c653a2063616c6c6572206973206e6f74207460448201526734329037bbb732b960c11b606482015260840161050b565b80516106d5906007906020840190611963565b6000818152600260205260408120546001600160a01b0316806103fe5760405162461bcd60e51b815260206004820152602960248201527f4552433732313a206f776e657220717565727920666f72206e6f6e657869737460448201527f656e7420746f6b656e0000000000000000000000000000000000000000000000606482015260840161050b565b60006001600160a01b038216610a445760405162461bcd60e51b815260206004820152602a60248201527f4552433732313a2062616c616e636520717565727920666f7220746865207a6560448201527f726f206164647265737300000000000000000000000000000000000000000000606482015260840161050b565b506001600160a01b031660009081526003602052604090205490565b6040517f6352211e0000000000000000000000000000000000000000000000000000000081523060048201526000907f00000000000000000000000000000000000000000000000000000000000000006001600160a01b031690636352211e9060240160206040518083038186803b158015610adb57600080fd5b505afa158015610aef573d6000803e3d6000fd5b505050506040513d601f19601f82011682018060405250810190610b139190611af4565b905090565b60606001805461041390611f2d565b6001600160a01b038216331415610b805760405162461bcd60e51b815260206004820152601960248201527f4552433732313a20617070726f766520746f2063616c6c657200000000000000604482015260640161050b565b3360008181526005602090815260408083206001600160a01b03871680855290835292819020805460ff191686151590811790915590519081529192917f17307eab39ab6107e8899845ad3d59bd9653f200f220920489ca2b5937696c31910160405180910390a35050565b610bf63383611035565b610c685760405162461bcd60e51b815260206004820152603160248201527f4552433732313a207472616e736665722063616c6c6572206973206e6f74206f60448201527f776e6572206e6f7220617070726f766564000000000000000000000000000000606482015260840161050b565b610c748484848461143f565b50505050565b6000818152600260205260409020546060906001600160a01b0316610d075760405162461bcd60e51b815260206004820152603160248201527f45524337323155524953746f726167653a2055524920717565727920666f722060448201527f6e6f6e6578697374656e7420746f6b656e000000000000000000000000000000606482015260840161050b565b60008281526006602052604081208054610d2090611f2d565b80601f0160208091040260200160405190810160405280929190818152602001828054610d4c90611f2d565b8015610d995780601f10610d6e57610100808354040283529160200191610d99565b820191906000526020600020905b815481529060010190602001808311610d7c57829003601f168201915b505050505090506000610daa6114c8565b9050805160001415610dbd575092915050565b815115610def578082604051602001610dd7929190611e06565b60405160208183030381529060405292505050919050565b610df8846114d7565b949350505050565b33610e09610a60565b6001600160a01b031614610e705760405162461bcd60e51b815260206004820152602860248201527f52656769737472794f776e61626c653a2063616c6c6572206973206e6f74207460448201526734329037bbb732b960c11b606482015260840161050b565b7f00000000000000000000000000000000000000000000000000000000000000006001600160a01b03166323b872dd610ea7610a60565b60405160e083901b6001600160e01b03191681526001600160a01b0391821660048201529084166024820152306044820152606401600060405180830381600087803b158015610ef657600080fd5b505af1158015610f0a573d6000803e3d6000fd5b5050505050565b6000818152600460205260409020805473ffffffffffffffffffffffffffffffffffffffff19166001600160a01b0384169081179091558190610f538261093b565b6001600160a01b03167f8c5be1e5ebec7d5bd14f71427d1e84f3dd0314c0f7b2291e5b200ac8c7c3b92560405160405180910390a45050565b6000828152600260205260409020546001600160a01b03166110165760405162461bcd60e51b815260206004820152602e60248201527f45524337323155524953746f726167653a2055524920736574206f66206e6f6e60448201527f6578697374656e7420746f6b656e000000000000000000000000000000000000606482015260840161050b565b6000828152600660209081526040909120825161065d92840190611963565b600061104183836115bf565b80611054575081836001600160a01b0316145b9392505050565b826001600160a01b031661106e8261093b565b6001600160a01b0316146110ea5760405162461bcd60e51b815260206004820152602960248201527f4552433732313a207472616e73666572206f6620746f6b656e2074686174206960448201527f73206e6f74206f776e0000000000000000000000000000000000000000000000606482015260840161050b565b6001600160a01b0382166111655760405162461bcd60e51b8152602060048201526024808201527f4552433732313a207472616e7366657220746f20746865207a65726f2061646460448201527f7265737300000000000000000000000000000000000000000000000000000000606482015260840161050b565b611170600082610f11565b6001600160a01b0383166000908152600360205260408120805460019290611199908490611eea565b90915550506001600160a01b03821660009081526003602052604081208054600192906111c7908490611ebe565b9091555050600081815260026020526040808220805473ffffffffffffffffffffffffffffffffffffffff19166001600160a01b0386811691821790925591518493918716917fddf252ad1be2c89b69c2b068fc378daa952ba7f163c4a11628f55a4df523b3ef91a4505050565b60006040517f3d602d80600a3d3981f3363d3d373d3d3d363d7300000000000000000000000081528260601b60148201527f5af43d82803e903d91602b57fd5bf3000000000000000000000000000000000060288201526037816000f09150506001600160a01b0381166112eb5760405162461bcd60e51b815260206004820152601660248201527f455243313136373a20637265617465206661696c656400000000000000000000604482015260640161050b565b919050565b6001600160a01b0382166113465760405162461bcd60e51b815260206004820181905260248201527f4552433732313a206d696e7420746f20746865207a65726f2061646472657373604482015260640161050b565b6000818152600260205260409020546001600160a01b0316156113ab5760405162461bcd60e51b815260206004820152601c60248201527f4552433732313a20746f6b656e20616c7265616479206d696e74656400000000604482015260640161050b565b6001600160a01b03821660009081526003602052604081208054600192906113d4908490611ebe565b9091555050600081815260026020526040808220805473ffffffffffffffffffffffffffffffffffffffff19166001600160a01b03861690811790915590518392907fddf252ad1be2c89b69c2b068fc378daa952ba7f163c4a11628f55a4df523b3ef908290a45050565b61144a84848461105b565b611456848484846116b2565b610c745760405162461bcd60e51b815260206004820152603260248201527f4552433732313a207472616e7366657220746f206e6f6e20455243373231526560448201527f63656976657220696d706c656d656e7465720000000000000000000000000000606482015260840161050b565b60606007805461041390611f2d565b6000818152600260205260409020546060906001600160a01b03166115645760405162461bcd60e51b815260206004820152602f60248201527f4552433732314d657461646174613a2055524920717565727920666f72206e6f60448201527f6e6578697374656e7420746f6b656e0000000000000000000000000000000000606482015260840161050b565b600061156e6114c8565b9050600081511161158e5760405180602001604052806000815250611054565b8061159884611815565b6040516020016115a9929190611e06565b6040516020818303038152906040529392505050565b6000818152600260205260408120546001600160a01b03166116385760405162461bcd60e51b815260206004820152602c60248201527f4552433732313a206f70657261746f7220717565727920666f72206e6f6e657860448201526b34b9ba32b73a103a37b5b2b760a11b606482015260840161050b565b60006116438361093b565b9050806001600160a01b0316846001600160a01b0316148061167e5750836001600160a01b031661167384610496565b6001600160a01b0316145b80610df857506001600160a01b0380821660009081526005602090815260408083209388168352929052205460ff16610df8565b60006001600160a01b0384163b1561180a57604051630a85bd0160e11b81526001600160a01b0385169063150b7a02906116f6903390899088908890600401611e35565b602060405180830381600087803b15801561171057600080fd5b505af1925050508015611740575060408051601f3d908101601f1916820190925261173d91810190611d05565b60015b6117f0573d80801561176e576040519150601f19603f3d011682016040523d82523d6000602084013e611773565b606091505b5080516117e85760405162461bcd60e51b815260206004820152603260248201527f4552433732313a207472616e7366657220746f206e6f6e20455243373231526560448201527f63656976657220696d706c656d656e7465720000000000000000000000000000606482015260840161050b565b805181602001fd5b6001600160e01b031916630a85bd0160e11b149050610df8565b506001949350505050565b60608161185557505060408051808201909152600181527f3000000000000000000000000000000000000000000000000000000000000000602082015290565b8160005b811561187f578061186981611f68565b91506118789050600a83611ed6565b9150611859565b60008167ffffffffffffffff8111156118a857634e487b7160e01b600052604160045260246000fd5b6040519080825280601f01601f1916602001820160405280156118d2576020820181803683370190505b5090505b8415610df8576118e7600183611eea565b91506118f4600a86611f83565b6118ff906030611ebe565b60f81b81838151811061192257634e487b7160e01b600052603260045260246000fd5b60200101907effffffffffffffffffffffffffffffffffffffffffffffffffffffffffffff1916908160001a90535061195c600a86611ed6565b94506118d6565b82805461196f90611f2d565b90600052602060002090601f01602090048101928261199157600085556119d7565b82601f106119aa57805160ff19168380011785556119d7565b828001600101855582156119d7579182015b828111156119d75782518255916020019190600101906119bc565b506119e39291506119e7565b5090565b5b808211156119e357600081556001016119e8565b600067ffffffffffffffff80841115611a1757611a17611fc3565b604051601f8501601f19908116603f01168101908282118183101715611a3f57611a3f611fc3565b81604052809350858152868686011115611a5857600080fd5b858560208301376000602087830101525050509392505050565b60008083601f840112611a83578182fd5b50813567ffffffffffffffff811115611a9a578182fd5b602083019150836020828501011115611ab257600080fd5b9250929050565b600082601f830112611ac9578081fd5b611054838335602085016119fc565b600060208284031215611ae9578081fd5b813561105481611fd9565b600060208284031215611b05578081fd5b815161105481611fd9565b60008060408385031215611b22578081fd5b8235611b2d81611fd9565b91506020830135611b3d81611fd9565b809150509250929050565b600080600060608486031215611b5c578081fd5b8335611b6781611fd9565b92506020840135611b7781611fd9565b929592945050506040919091013590565b60008060008060808587031215611b9d578081fd5b8435611ba881611fd9565b93506020850135611bb881611fd9565b925060408501359150606085013567ffffffffffffffff811115611bda578182fd5b8501601f81018713611bea578182fd5b611bf9878235602084016119fc565b91505092959194509250565b60008060408385031215611c17578182fd5b8235611c2281611fd9565b915060208301358015158114611b3d578182fd5b60008060008060008060808789031215611c4e578182fd5b8635611c5981611fd9565b9550602087013567ffffffffffffffff80821115611c75578384fd5b611c818a838b01611a72565b90975095506040890135915080821115611c99578384fd5b50611ca689828a01611a72565b979a9699509497949695606090950135949350505050565b60008060408385031215611cd0578182fd5b8235611cdb81611fd9565b946020939093013593505050565b600060208284031215611cfa578081fd5b813561105481611ff1565b600060208284031215611d16578081fd5b815161105481611ff1565b600060208284031215611d32578081fd5b813567ffffffffffffffff811115611d48578182fd5b610df884828501611ab9565b600060208284031215611d65578081fd5b5035919050565b60008060408385031215611d7e578182fd5b82359150602083013567ffffffffffffffff811115611d9b578182fd5b611da785828601611ab9565b9150509250929050565b60008151808452611dc9816020860160208601611f01565b601f01601f19169290920160200192915050565b81835281816020850137506000828201602090810191909152601f909101601f19169091010190565b60008351611e18818460208801611f01565b835190830190611e2c818360208801611f01565b01949350505050565b60006001600160a01b03808716835280861660208401525083604083015260806060830152611e676080830184611db1565b9695505050505050565b606081526000611e85606083018789611ddd565b8281036020840152611e98818688611ddd565b9150508260408301529695505050505050565b6020815260006110546020830184611db1565b60008219821115611ed157611ed1611f97565b500190565b600082611ee557611ee5611fad565b500490565b600082821015611efc57611efc611f97565b500390565b60005b83811015611f1c578181015183820152602001611f04565b83811115610c745750506000910152565b600181811c90821680611f4157607f821691505b60208210811415611f6257634e487b7160e01b600052602260045260246000fd5b50919050565b6000600019821415611f7c57611f7c611f97565b5060010190565b600082611f9257611f92611fad565b500690565b634e487b7160e01b600052601160045260246000fd5b634e487b7160e01b600052601260045260246000fd5b634e487b7160e01b600052604160045260246000fd5b6001600160a01b0381168114611fee57600080fd5b50565b6001600160e01b031981168114611fee57600080fdfea2646970667358221220b79be4106bdc111a75635b880540c00f2d92de412c1b379d984abc36924a77b164736f6c6343000804003360a060405234801561001057600080fd5b503360601b608052600054610100900460ff1680610031575060005460ff16155b6100985760405162461bcd60e51b815260206004820152602e60248201527f496e697469616c697a61626c653a20636f6e747261637420697320616c72656160448201526d191e481a5b9a5d1a585b1a5e995960921b606482015260840160405180910390fd5b600054610100900460ff161580156100ba576000805461ffff19166101011790555b80156100cc576000805461ff00191690555b5060805160601c611d516100f96000396000818161022f015281816106df0152610b6c0152611d516000f3fe608060405234801561001057600080fd5b50600436106101775760003560e01c806370a08231116100d8578063a457c2d71161008c578063d505accf11610066578063d505accf14610311578063dd62ed3e14610324578063f2fde38b1461035d57600080fd5b8063a457c2d7146102c8578063a9059cbb146102db578063c884ef83146102ee57600080fd5b80638da5cb5b116100bd5780638da5cb5b146102a557806395d89b41146102ad578063995314c7146102b557600080fd5b806370a08231146102695780637ecebe001461029257600080fd5b8063313ce5671161012f578063395093511161011457806339509351146102025780633d13f87414610215578063522a4fd01461022a57600080fd5b8063313ce567146101eb5780633644e515146101fa57600080fd5b806318160ddd1161016057806318160ddd146101bd57806323b872dd146101cf5780632eb4a7ab146101e257600080fd5b806306fdde031461017c578063095ea7b31461019a575b600080fd5b610184610370565b6040516101919190611c1e565b60405180910390f35b6101ad6101a8366004611afb565b610402565b6040519015158152602001610191565b6035545b604051908152602001610191565b6101ad6101dd366004611a46565b610418565b6101c160cc5481565b60405160128152602001610191565b6101c16104e3565b6101ad610210366004611afb565b6104f2565b610228610223366004611b26565b610529565b005b6102517f000000000000000000000000000000000000000000000000000000000000000081565b6040516001600160a01b039091168152602001610191565b6101c16102773660046119cf565b6001600160a01b031660009081526033602052604090205490565b6101c16102a03660046119cf565b61068e565b6102516106ae565b610184610761565b6102286102c3366004611bad565b610770565b6101ad6102d6366004611afb565b6108df565b6101ad6102e9366004611afb565b610992565b6101ad6102fc3660046119cf565b60cd6020526000908152604090205460ff1681565b61022861031f366004611a86565b61099f565b6101c1610332366004611a0e565b6001600160a01b03918216600090815260346020908152604080832093909416825291909152205490565b61022861036b3660046119cf565b610ae5565b60606036805461037f90611ca0565b80601f01602080910402602001604051908101604052809291908181526020018280546103ab90611ca0565b80156103f85780601f106103cd576101008083540402835291602001916103f8565b820191906000526020600020905b8154815290600101906020018083116103db57829003601f168201915b5050505050905090565b600061040f338484610c23565b50600192915050565b6000610425848484610d7b565b6001600160a01b0384166000908152603460209081526040808320338452909152902054828110156104c45760405162461bcd60e51b815260206004820152602860248201527f45524332303a207472616e7366657220616d6f756e742065786365656473206160448201527f6c6c6f77616e636500000000000000000000000000000000000000000000000060648201526084015b60405180910390fd5b6104d885336104d38685611c89565b610c23565b506001949350505050565b60006104ed610f9c565b905090565b3360008181526034602090815260408083206001600160a01b0387168452909152812054909161040f9185906104d3908690611c71565b6001600160a01b038416600090815260cd602052604090205460ff16156105925760405162461bcd60e51b815260206004820152601f60248201527f546f6b656e206861766520616c7265616479206265656e20636c61696d65640060448201526064016104bb565b61060f8282808060200260200160405190810160405280939291908181526020018383602002808284376000920191909152505060cc546040516bffffffffffffffffffffffff1960608b901b16602082015260348101899052909250605401905060405160208183030381529060405280519060200120611017565b61065b5760405162461bcd60e51b815260206004820152601460248201527f496e76616c6964206d65726b6c652070726f6f6600000000000000000000000060448201526064016104bb565b6001600160a01b038416600090815260cd60205260409020805460ff1916600117905561068884846110d4565b50505050565b6001600160a01b0381166000908152609960205260408120545b92915050565b6040517f6352211e0000000000000000000000000000000000000000000000000000000081523060048201526000907f00000000000000000000000000000000000000000000000000000000000000006001600160a01b031690636352211e9060240160206040518083038186803b15801561072957600080fd5b505afa15801561073d573d6000803e3d6000fd5b505050506040513d601f19601f820116820180604052508101906104ed91906119f2565b60606037805461037f90611ca0565b600054610100900460ff1680610789575060005460ff16155b6107ec5760405162461bcd60e51b815260206004820152602e60248201527f496e697469616c697a61626c653a20636f6e747261637420697320616c72656160448201526d191e481a5b9a5d1a585b1a5e995960921b60648201526084016104bb565b600054610100900460ff1615801561080e576000805461ffff19166101011790555b61088186868080601f01602080910402602001604051908101604052809392919081815260200183838082843760009201919091525050604080516020601f8a0181900481028201810190925288815292508891508790819084018382808284376000920191909152506111b392505050565b6108c086868080601f01602080910402602001604051908101604052809392919081815260200183838082843760009201919091525061127a92505050565b60cc82905580156108d7576000805461ff00191690555b505050505050565b3360009081526034602090815260408083206001600160a01b0386168452909152812054828110156109795760405162461bcd60e51b815260206004820152602560248201527f45524332303a2064656372656173656420616c6c6f77616e63652062656c6f7760448201527f207a65726f00000000000000000000000000000000000000000000000000000060648201526084016104bb565b61098833856104d38685611c89565b5060019392505050565b600061040f338484610d7b565b834211156109ef5760405162461bcd60e51b815260206004820152601d60248201527f45524332305065726d69743a206578706972656420646561646c696e6500000060448201526064016104bb565b6000609a54888888610a008c61137e565b6040805160208101969096526001600160a01b0394851690860152929091166060840152608083015260a082015260c0810186905260e0016040516020818303038152906040528051906020012090506000610a5b826113a6565b90506000610a6b8287878761140f565b9050896001600160a01b0316816001600160a01b031614610ace5760405162461bcd60e51b815260206004820152601e60248201527f45524332305065726d69743a20696e76616c6964207369676e6174757265000060448201526064016104bb565b610ad98a8a8a610c23565b50505050505050505050565b33610aee6106ae565b6001600160a01b031614610b6a5760405162461bcd60e51b815260206004820152602860248201527f52656769737472794f776e61626c653a2063616c6c6572206973206e6f74207460448201527f6865206f776e657200000000000000000000000000000000000000000000000060648201526084016104bb565b7f00000000000000000000000000000000000000000000000000000000000000006001600160a01b03166323b872dd610ba16106ae565b60405160e083901b7fffffffff000000000000000000000000000000000000000000000000000000001681526001600160a01b0391821660048201529084166024820152306044820152606401600060405180830381600087803b158015610c0857600080fd5b505af1158015610c1c573d6000803e3d6000fd5b5050505050565b6001600160a01b038316610c9e5760405162461bcd60e51b8152602060048201526024808201527f45524332303a20617070726f76652066726f6d20746865207a65726f2061646460448201527f726573730000000000000000000000000000000000000000000000000000000060648201526084016104bb565b6001600160a01b038216610d1a5760405162461bcd60e51b815260206004820152602260248201527f45524332303a20617070726f766520746f20746865207a65726f20616464726560448201527f737300000000000000000000000000000000000000000000000000000000000060648201526084016104bb565b6001600160a01b0383811660008181526034602090815260408083209487168084529482529182902085905590518481527f8c5be1e5ebec7d5bd14f71427d1e84f3dd0314c0f7b2291e5b200ac8c7c3b925910160405180910390a3505050565b6001600160a01b038316610df75760405162461bcd60e51b815260206004820152602560248201527f45524332303a207472616e736665722066726f6d20746865207a65726f20616460448201527f647265737300000000000000000000000000000000000000000000000000000060648201526084016104bb565b6001600160a01b038216610e735760405162461bcd60e51b815260206004820152602360248201527f45524332303a207472616e7366657220746f20746865207a65726f206164647260448201527f657373000000000000000000000000000000000000000000000000000000000060648201526084016104bb565b6001600160a01b03831660009081526033602052604090205481811015610f025760405162461bcd60e51b815260206004820152602660248201527f45524332303a207472616e7366657220616d6f756e742065786365656473206260448201527f616c616e6365000000000000000000000000000000000000000000000000000060648201526084016104bb565b610f0c8282611c89565b6001600160a01b038086166000908152603360205260408082209390935590851681529081208054849290610f42908490611c71565b92505081905550826001600160a01b0316846001600160a01b03167fddf252ad1be2c89b69c2b068fc378daa952ba7f163c4a11628f55a4df523b3ef84604051610f8e91815260200190565b60405180910390a350505050565b60006104ed7f8b73c3c69bb8fe3d512ecc4cf759cc79239f7b179b0ffacaa9a75d522b39400f610fcb60655490565b6066546040805160208101859052908101839052606081018290524660808201523060a082015260009060c0016040516020818303038152906040528051906020012090509392505050565b600081815b85518110156110c957600086828151811061104757634e487b7160e01b600052603260045260246000fd5b602002602001015190508083116110895760408051602081018590529081018290526060016040516020818303038152906040528051906020012092506110b6565b60408051602081018390529081018490526060016040516020818303038152906040528051906020012092505b50806110c181611cd5565b91505061101c565b509092149392505050565b6001600160a01b03821661112a5760405162461bcd60e51b815260206004820152601f60248201527f45524332303a206d696e7420746f20746865207a65726f20616464726573730060448201526064016104bb565b806035600082825461113c9190611c71565b90915550506001600160a01b03821660009081526033602052604081208054839290611169908490611c71565b90915550506040518181526001600160a01b038316906000907fddf252ad1be2c89b69c2b068fc378daa952ba7f163c4a11628f55a4df523b3ef9060200160405180910390a35050565b600054610100900460ff16806111cc575060005460ff16155b61122f5760405162461bcd60e51b815260206004820152602e60248201527f496e697469616c697a61626c653a20636f6e747261637420697320616c72656160448201526d191e481a5b9a5d1a585b1a5e995960921b60648201526084016104bb565b600054610100900460ff16158015611251576000805461ffff19166101011790555b6112596115b8565b611263838361166b565b8015611275576000805461ff00191690555b505050565b600054610100900460ff1680611293575060005460ff16155b6112f65760405162461bcd60e51b815260206004820152602e60248201527f496e697469616c697a61626c653a20636f6e747261637420697320616c72656160448201526d191e481a5b9a5d1a585b1a5e995960921b60648201526084016104bb565b600054610100900460ff16158015611318576000805461ffff19166101011790555b6113206115b8565b61135f826040518060400160405280600181526020017f3100000000000000000000000000000000000000000000000000000000000000815250611747565b61136882611818565b801561137a576000805461ff00191690555b5050565b6001600160a01b03811660009081526099602052604090208054600181018255905b50919050565b60006106a86113b3610f9c565b836040517f19010000000000000000000000000000000000000000000000000000000000006020820152602281018390526042810182905260009060620160405160208183030381529060405280519060200120905092915050565b60007f7fffffffffffffffffffffffffffffff5d576e7357a4501ddfe92f46681b20a082111561148c5760405162461bcd60e51b815260206004820152602260248201527f45434453413a20696e76616c6964207369676e6174757265202773272076616c604482015261756560f01b60648201526084016104bb565b8360ff16601b14806114a157508360ff16601c145b6114f85760405162461bcd60e51b815260206004820152602260248201527f45434453413a20696e76616c6964207369676e6174757265202776272076616c604482015261756560f01b60648201526084016104bb565b6040805160008082526020820180845288905260ff871692820192909252606081018590526080810184905260019060a0016020604051602081039080840390855afa15801561154c573d6000803e3d6000fd5b5050604051601f1901519150506001600160a01b0381166115af5760405162461bcd60e51b815260206004820152601860248201527f45434453413a20696e76616c6964207369676e6174757265000000000000000060448201526064016104bb565b95945050505050565b600054610100900460ff16806115d1575060005460ff16155b6116345760405162461bcd60e51b815260206004820152602e60248201527f496e697469616c697a61626c653a20636f6e747261637420697320616c72656160448201526d191e481a5b9a5d1a585b1a5e995960921b60648201526084016104bb565b600054610100900460ff16158015611656576000805461ffff19166101011790555b8015611668576000805461ff00191690555b50565b600054610100900460ff1680611684575060005460ff16155b6116e75760405162461bcd60e51b815260206004820152602e60248201527f496e697469616c697a61626c653a20636f6e747261637420697320616c72656160448201526d191e481a5b9a5d1a585b1a5e995960921b60648201526084016104bb565b600054610100900460ff16158015611709576000805461ffff19166101011790555b825161171c9060369060208601906118ef565b5081516117309060379060208501906118ef565b508015611275576000805461ff0019169055505050565b600054610100900460ff1680611760575060005460ff16155b6117c35760405162461bcd60e51b815260206004820152602e60248201527f496e697469616c697a61626c653a20636f6e747261637420697320616c72656160448201526d191e481a5b9a5d1a585b1a5e995960921b60648201526084016104bb565b600054610100900460ff161580156117e5576000805461ffff19166101011790555b82516020808501919091208351918401919091206065919091556066558015611275576000805461ff0019169055505050565b600054610100900460ff1680611831575060005460ff16155b6118945760405162461bcd60e51b815260206004820152602e60248201527f496e697469616c697a61626c653a20636f6e747261637420697320616c72656160448201526d191e481a5b9a5d1a585b1a5e995960921b60648201526084016104bb565b600054610100900460ff161580156118b6576000805461ffff19166101011790555b7f6e71edae12b1b97f4d1f60370fef10105fa2faae0126114a169c64845d6126c9609a55801561137a576000805461ff00191690555050565b8280546118fb90611ca0565b90600052602060002090601f01602090048101928261191d5760008555611963565b82601f1061193657805160ff1916838001178555611963565b82800160010185558215611963579182015b82811115611963578251825591602001919060010190611948565b5061196f929150611973565b5090565b5b8082111561196f5760008155600101611974565b60008083601f840112611999578182fd5b50813567ffffffffffffffff8111156119b0578182fd5b6020830191508360208285010111156119c857600080fd5b9250929050565b6000602082840312156119e0578081fd5b81356119eb81611d06565b9392505050565b600060208284031215611a03578081fd5b81516119eb81611d06565b60008060408385031215611a20578081fd5b8235611a2b81611d06565b91506020830135611a3b81611d06565b809150509250929050565b600080600060608486031215611a5a578081fd5b8335611a6581611d06565b92506020840135611a7581611d06565b929592945050506040919091013590565b600080600080600080600060e0888a031215611aa0578283fd5b8735611aab81611d06565b96506020880135611abb81611d06565b95506040880135945060608801359350608088013560ff81168114611ade578384fd5b9699959850939692959460a0840135945060c09093013592915050565b60008060408385031215611b0d578182fd5b8235611b1881611d06565b946020939093013593505050565b60008060008060608587031215611b3b578384fd5b8435611b4681611d06565b935060208501359250604085013567ffffffffffffffff80821115611b69578384fd5b818701915087601f830112611b7c578384fd5b813581811115611b8a578485fd5b8860208260051b8501011115611b9e578485fd5b95989497505060200194505050565b600080600080600060608688031215611bc4578081fd5b853567ffffffffffffffff80821115611bdb578283fd5b611be789838a01611988565b90975095506020880135915080821115611bff578283fd5b50611c0c88828901611988565b96999598509660400135949350505050565b6000602080835283518082850152825b81811015611c4a57858101830151858201604001528201611c2e565b81811115611c5b5783604083870101525b50601f01601f1916929092016040019392505050565b60008219821115611c8457611c84611cf0565b500190565b600082821015611c9b57611c9b611cf0565b500390565b600181811c90821680611cb457607f821691505b602082108114156113a057634e487b7160e01b600052602260045260246000fd5b6000600019821415611ce957611ce9611cf0565b5060010190565b634e487b7160e01b600052601160045260246000fd5b6001600160a01b038116811461166857600080fdfea26469706673582212201c747e9c28924443b3f0d8c6210bf2c963a166942bab76f6b092794607012af064736f6c63430008040033",
  "linkReferences": {},
  "deployedLinkReferences": {}
}