{
  "_format": "hh-sol-artifact-1",
  "contractName": "P00lSocialToken",
  "sourceName": "contracts/tokens/P00lSocialToken.sol",
  "abi": [
    {
      "inputs": [],
      "stateMutability": "nonpayable",
      "type": "constructor"
    },
    {
      "anonymous": false,
      "inputs": [
        {
          "indexed": true,
          "internalType": "address",
          "name": "owner",
          "type": "address"
        },
        {
          "indexed": true,
          "internalType": "address",
          "name": "spender",
          "type": "address"
        },
        {
          "indexed": false,
          "internalType": "uint256",
          "name": "value",
          "type": "uint256"
        }
      ],
      "name": "Approval",
      "type": "event"
    },
    {
      "anonymous": false,
      "inputs": [
        {
          "indexed": true,
          "internalType": "address",
          "name": "from",
          "type": "address"
        },
        {
          "indexed": true,
          "internalType": "address",
          "name": "to",
          "type": "address"
        },
        {
          "indexed": false,
          "internalType": "uint256",
          "name": "value",
          "type": "uint256"
        }
      ],
      "name": "Transfer",
      "type": "event"
    },
    {
      "inputs": [],
      "name": "DOMAIN_SEPARATOR",
      "outputs": [
        {
          "internalType": "bytes32",
          "name": "",
          "type": "bytes32"
        }
      ],
      "stateMutability": "view",
      "type": "function"
    },
    {
      "inputs": [
        {
          "internalType": "address",
          "name": "owner",
          "type": "address"
        },
        {
          "internalType": "address",
          "name": "spender",
          "type": "address"
        }
      ],
      "name": "allowance",
      "outputs": [
        {
          "internalType": "uint256",
          "name": "",
          "type": "uint256"
        }
      ],
      "stateMutability": "view",
      "type": "function"
    },
    {
      "inputs": [
        {
          "internalType": "address",
          "name": "spender",
          "type": "address"
        },
        {
          "internalType": "uint256",
          "name": "amount",
          "type": "uint256"
        }
      ],
      "name": "approve",
      "outputs": [
        {
          "internalType": "bool",
          "name": "",
          "type": "bool"
        }
      ],
      "stateMutability": "nonpayable",
      "type": "function"
    },
    {
      "inputs": [
        {
          "internalType": "address",
          "name": "account",
          "type": "address"
        }
      ],
      "name": "balanceOf",
      "outputs": [
        {
          "internalType": "uint256",
          "name": "",
          "type": "uint256"
        }
      ],
      "stateMutability": "view",
      "type": "function"
    },
    {
      "inputs": [
        {
          "internalType": "address",
          "name": "account",
          "type": "address"
        },
        {
          "internalType": "uint256",
          "name": "amount",
          "type": "uint256"
        },
        {
          "internalType": "bytes32[]",
          "name": "proof",
          "type": "bytes32[]"
        }
      ],
      "name": "claim",
      "outputs": [],
      "stateMutability": "nonpayable",
      "type": "function"
    },
    {
      "inputs": [
        {
          "internalType": "address",
          "name": "",
          "type": "address"
        }
      ],
      "name": "claimed",
      "outputs": [
        {
          "internalType": "bool",
          "name": "",
          "type": "bool"
        }
      ],
      "stateMutability": "view",
      "type": "function"
    },
    {
      "inputs": [],
      "name": "decimals",
      "outputs": [
        {
          "internalType": "uint8",
          "name": "",
          "type": "uint8"
        }
      ],
      "stateMutability": "view",
      "type": "function"
    },
    {
      "inputs": [
        {
          "internalType": "address",
          "name": "spender",
          "type": "address"
        },
        {
          "internalType": "uint256",
          "name": "subtractedValue",
          "type": "uint256"
        }
      ],
      "name": "decreaseAllowance",
      "outputs": [
        {
          "internalType": "bool",
          "name": "",
          "type": "bool"
        }
      ],
      "stateMutability": "nonpayable",
      "type": "function"
    },
    {
      "inputs": [
        {
          "internalType": "address",
          "name": "spender",
          "type": "address"
        },
        {
          "internalType": "uint256",
          "name": "addedValue",
          "type": "uint256"
        }
      ],
      "name": "increaseAllowance",
      "outputs": [
        {
          "internalType": "bool",
          "name": "",
          "type": "bool"
        }
      ],
      "stateMutability": "nonpayable",
      "type": "function"
    },
    {
      "inputs": [
        {
          "internalType": "string",
          "name": "name",
          "type": "string"
        },
        {
          "internalType": "string",
          "name": "symbol",
          "type": "string"
        },
        {
          "internalType": "bytes32",
          "name": "root",
          "type": "bytes32"
        }
      ],
      "name": "initialize",
      "outputs": [],
      "stateMutability": "nonpayable",
      "type": "function"
    },
    {
      "inputs": [],
      "name": "merkleRoot",
      "outputs": [
        {
          "internalType": "bytes32",
          "name": "",
          "type": "bytes32"
        }
      ],
      "stateMutability": "view",
      "type": "function"
    },
    {
      "inputs": [],
      "name": "name",
      "outputs": [
        {
          "internalType": "string",
          "name": "",
          "type": "string"
        }
      ],
      "stateMutability": "view",
      "type": "function"
    },
    {
      "inputs": [
        {
          "internalType": "address",
          "name": "owner",
          "type": "address"
        }
      ],
      "name": "nonces",
      "outputs": [
        {
          "internalType": "uint256",
          "name": "",
          "type": "uint256"
        }
      ],
      "stateMutability": "view",
      "type": "function"
    },
    {
      "inputs": [],
      "name": "owner",
      "outputs": [
        {
          "internalType": "address",
          "name": "",
          "type": "address"
        }
      ],
      "stateMutability": "view",
      "type": "function"
    },
    {
      "inputs": [],
      "name": "ownershipRegistry",
      "outputs": [
        {
          "internalType": "contract IERC721",
          "name": "",
          "type": "address"
        }
      ],
      "stateMutability": "view",
      "type": "function"
    },
    {
      "inputs": [
        {
          "internalType": "address",
          "name": "owner",
          "type": "address"
        },
        {
          "internalType": "address",
          "name": "spender",
          "type": "address"
        },
        {
          "internalType": "uint256",
          "name": "value",
          "type": "uint256"
        },
        {
          "internalType": "uint256",
          "name": "deadline",
          "type": "uint256"
        },
        {
          "internalType": "uint8",
          "name": "v",
          "type": "uint8"
        },
        {
          "internalType": "bytes32",
          "name": "r",
          "type": "bytes32"
        },
        {
          "internalType": "bytes32",
          "name": "s",
          "type": "bytes32"
        }
      ],
      "name": "permit",
      "outputs": [],
      "stateMutability": "nonpayable",
      "type": "function"
    },
    {
      "inputs": [],
      "name": "symbol",
      "outputs": [
        {
          "internalType": "string",
          "name": "",
          "type": "string"
        }
      ],
      "stateMutability": "view",
      "type": "function"
    },
    {
      "inputs": [],
      "name": "totalSupply",
      "outputs": [
        {
          "internalType": "uint256",
          "name": "",
          "type": "uint256"
        }
      ],
      "stateMutability": "view",
      "type": "function"
    },
    {
      "inputs": [
        {
          "internalType": "address",
          "name": "recipient",
          "type": "address"
        },
        {
          "internalType": "uint256",
          "name": "amount",
          "type": "uint256"
        }
      ],
      "name": "transfer",
      "outputs": [
        {
          "internalType": "bool",
          "name": "",
          "type": "bool"
        }
      ],
      "stateMutability": "nonpayable",
      "type": "function"
    },
    {
      "inputs": [
        {
          "internalType": "address",
          "name": "sender",
          "type": "address"
        },
        {
          "internalType": "address",
          "name": "recipient",
          "type": "address"
        },
        {
          "internalType": "uint256",
          "name": "amount",
          "type": "uint256"
        }
      ],
      "name": "transferFrom",
      "outputs": [
        {
          "internalType": "bool",
          "name": "",
          "type": "bool"
        }
      ],
      "stateMutability": "nonpayable",
      "type": "function"
    },
    {
      "inputs": [
        {
          "internalType": "address",
          "name": "newOwner",
          "type": "address"
        }
      ],
      "name": "transferOwnership",
      "outputs": [],
      "stateMutability": "nonpayable",
      "type": "function"
    }
  ],
  "bytecode": "0x60a060405234801561001057600080fd5b503360601b608052600054610100900460ff1680610031575060005460ff16155b6100985760405162461bcd60e51b815260206004820152602e60248201527f496e697469616c697a61626c653a20636f6e747261637420697320616c72656160448201526d191e481a5b9a5d1a585b1a5e995960921b606482015260840160405180910390fd5b600054610100900460ff161580156100ba576000805461ffff19166101011790555b80156100cc576000805461ff00191690555b5060805160601c611d516100f96000396000818161022f015281816106df0152610b6c0152611d516000f3fe608060405234801561001057600080fd5b50600436106101775760003560e01c806370a08231116100d8578063a457c2d71161008c578063d505accf11610066578063d505accf14610311578063dd62ed3e14610324578063f2fde38b1461035d57600080fd5b8063a457c2d7146102c8578063a9059cbb146102db578063c884ef83146102ee57600080fd5b80638da5cb5b116100bd5780638da5cb5b146102a557806395d89b41146102ad578063995314c7146102b557600080fd5b806370a08231146102695780637ecebe001461029257600080fd5b8063313ce5671161012f578063395093511161011457806339509351146102025780633d13f87414610215578063522a4fd01461022a57600080fd5b8063313ce567146101eb5780633644e515146101fa57600080fd5b806318160ddd1161016057806318160ddd146101bd57806323b872dd146101cf5780632eb4a7ab146101e257600080fd5b806306fdde031461017c578063095ea7b31461019a575b600080fd5b610184610370565b6040516101919190611c1e565b60405180910390f35b6101ad6101a8366004611afb565b610402565b6040519015158152602001610191565b6035545b604051908152602001610191565b6101ad6101dd366004611a46565b610418565b6101c160cc5481565b60405160128152602001610191565b6101c16104e3565b6101ad610210366004611afb565b6104f2565b610228610223366004611b26565b610529565b005b6102517f000000000000000000000000000000000000000000000000000000000000000081565b6040516001600160a01b039091168152602001610191565b6101c16102773660046119cf565b6001600160a01b031660009081526033602052604090205490565b6101c16102a03660046119cf565b61068e565b6102516106ae565b610184610761565b6102286102c3366004611bad565b610770565b6101ad6102d6366004611afb565b6108df565b6101ad6102e9366004611afb565b610992565b6101ad6102fc3660046119cf565b60cd6020526000908152604090205460ff1681565b61022861031f366004611a86565b61099f565b6101c1610332366004611a0e565b6001600160a01b03918216600090815260346020908152604080832093909416825291909152205490565b61022861036b3660046119cf565b610ae5565b60606036805461037f90611ca0565b80601f01602080910402602001604051908101604052809291908181526020018280546103ab90611ca0565b80156103f85780601f106103cd576101008083540402835291602001916103f8565b820191906000526020600020905b8154815290600101906020018083116103db57829003601f168201915b5050505050905090565b600061040f338484610c23565b50600192915050565b6000610425848484610d7b565b6001600160a01b0384166000908152603460209081526040808320338452909152902054828110156104c45760405162461bcd60e51b815260206004820152602860248201527f45524332303a207472616e7366657220616d6f756e742065786365656473206160448201527f6c6c6f77616e636500000000000000000000000000000000000000000000000060648201526084015b60405180910390fd5b6104d885336104d38685611c89565b610c23565b506001949350505050565b60006104ed610f9c565b905090565b3360008181526034602090815260408083206001600160a01b0387168452909152812054909161040f9185906104d3908690611c71565b6001600160a01b038416600090815260cd602052604090205460ff16156105925760405162461bcd60e51b815260206004820152601f60248201527f546f6b656e206861766520616c7265616479206265656e20636c61696d65640060448201526064016104bb565b61060f8282808060200260200160405190810160405280939291908181526020018383602002808284376000920191909152505060cc546040516bffffffffffffffffffffffff1960608b901b16602082015260348101899052909250605401905060405160208183030381529060405280519060200120611017565b61065b5760405162461bcd60e51b815260206004820152601460248201527f496e76616c6964206d65726b6c652070726f6f6600000000000000000000000060448201526064016104bb565b6001600160a01b038416600090815260cd60205260409020805460ff1916600117905561068884846110d4565b50505050565b6001600160a01b0381166000908152609960205260408120545b92915050565b6040517f6352211e0000000000000000000000000000000000000000000000000000000081523060048201526000907f00000000000000000000000000000000000000000000000000000000000000006001600160a01b031690636352211e9060240160206040518083038186803b15801561072957600080fd5b505afa15801561073d573d6000803e3d6000fd5b505050506040513d601f19601f820116820180604052508101906104ed91906119f2565b60606037805461037f90611ca0565b600054610100900460ff1680610789575060005460ff16155b6107ec5760405162461bcd60e51b815260206004820152602e60248201527f496e697469616c697a61626c653a20636f6e747261637420697320616c72656160448201526d191e481a5b9a5d1a585b1a5e995960921b60648201526084016104bb565b600054610100900460ff1615801561080e576000805461ffff19166101011790555b61088186868080601f01602080910402602001604051908101604052809392919081815260200183838082843760009201919091525050604080516020601f8a0181900481028201810190925288815292508891508790819084018382808284376000920191909152506111b392505050565b6108c086868080601f01602080910402602001604051908101604052809392919081815260200183838082843760009201919091525061127a92505050565b60cc82905580156108d7576000805461ff00191690555b505050505050565b3360009081526034602090815260408083206001600160a01b0386168452909152812054828110156109795760405162461bcd60e51b815260206004820152602560248201527f45524332303a2064656372656173656420616c6c6f77616e63652062656c6f7760448201527f207a65726f00000000000000000000000000000000000000000000000000000060648201526084016104bb565b61098833856104d38685611c89565b5060019392505050565b600061040f338484610d7b565b834211156109ef5760405162461bcd60e51b815260206004820152601d60248201527f45524332305065726d69743a206578706972656420646561646c696e6500000060448201526064016104bb565b6000609a54888888610a008c61137e565b6040805160208101969096526001600160a01b0394851690860152929091166060840152608083015260a082015260c0810186905260e0016040516020818303038152906040528051906020012090506000610a5b826113a6565b90506000610a6b8287878761140f565b9050896001600160a01b0316816001600160a01b031614610ace5760405162461bcd60e51b815260206004820152601e60248201527f45524332305065726d69743a20696e76616c6964207369676e6174757265000060448201526064016104bb565b610ad98a8a8a610c23565b50505050505050505050565b33610aee6106ae565b6001600160a01b031614610b6a5760405162461bcd60e51b815260206004820152602860248201527f52656769737472794f776e61626c653a2063616c6c6572206973206e6f74207460448201527f6865206f776e657200000000000000000000000000000000000000000000000060648201526084016104bb565b7f00000000000000000000000000000000000000000000000000000000000000006001600160a01b03166323b872dd610ba16106ae565b60405160e083901b7fffffffff000000000000000000000000000000000000000000000000000000001681526001600160a01b0391821660048201529084166024820152306044820152606401600060405180830381600087803b158015610c0857600080fd5b505af1158015610c1c573d6000803e3d6000fd5b5050505050565b6001600160a01b038316610c9e5760405162461bcd60e51b8152602060048201526024808201527f45524332303a20617070726f76652066726f6d20746865207a65726f2061646460448201527f726573730000000000000000000000000000000000000000000000000000000060648201526084016104bb565b6001600160a01b038216610d1a5760405162461bcd60e51b815260206004820152602260248201527f45524332303a20617070726f766520746f20746865207a65726f20616464726560448201527f737300000000000000000000000000000000000000000000000000000000000060648201526084016104bb565b6001600160a01b0383811660008181526034602090815260408083209487168084529482529182902085905590518481527f8c5be1e5ebec7d5bd14f71427d1e84f3dd0314c0f7b2291e5b200ac8c7c3b925910160405180910390a3505050565b6001600160a01b038316610df75760405162461bcd60e51b815260206004820152602560248201527f45524332303a207472616e736665722066726f6d20746865207a65726f20616460448201527f647265737300000000000000000000000000000000000000000000000000000060648201526084016104bb565b6001600160a01b038216610e735760405162461bcd60e51b815260206004820152602360248201527f45524332303a207472616e7366657220746f20746865207a65726f206164647260448201527f657373000000000000000000000000000000000000000000000000000000000060648201526084016104bb565b6001600160a01b03831660009081526033602052604090205481811015610f025760405162461bcd60e51b815260206004820152602660248201527f45524332303a207472616e7366657220616d6f756e742065786365656473206260448201527f616c616e6365000000000000000000000000000000000000000000000000000060648201526084016104bb565b610f0c8282611c89565b6001600160a01b038086166000908152603360205260408082209390935590851681529081208054849290610f42908490611c71565b92505081905550826001600160a01b0316846001600160a01b03167fddf252ad1be2c89b69c2b068fc378daa952ba7f163c4a11628f55a4df523b3ef84604051610f8e91815260200190565b60405180910390a350505050565b60006104ed7f8b73c3c69bb8fe3d512ecc4cf759cc79239f7b179b0ffacaa9a75d522b39400f610fcb60655490565b6066546040805160208101859052908101839052606081018290524660808201523060a082015260009060c0016040516020818303038152906040528051906020012090509392505050565b600081815b85518110156110c957600086828151811061104757634e487b7160e01b600052603260045260246000fd5b602002602001015190508083116110895760408051602081018590529081018290526060016040516020818303038152906040528051906020012092506110b6565b60408051602081018390529081018490526060016040516020818303038152906040528051906020012092505b50806110c181611cd5565b91505061101c565b509092149392505050565b6001600160a01b03821661112a5760405162461bcd60e51b815260206004820152601f60248201527f45524332303a206d696e7420746f20746865207a65726f20616464726573730060448201526064016104bb565b806035600082825461113c9190611c71565b90915550506001600160a01b03821660009081526033602052604081208054839290611169908490611c71565b90915550506040518181526001600160a01b038316906000907fddf252ad1be2c89b69c2b068fc378daa952ba7f163c4a11628f55a4df523b3ef9060200160405180910390a35050565b600054610100900460ff16806111cc575060005460ff16155b61122f5760405162461bcd60e51b815260206004820152602e60248201527f496e697469616c697a61626c653a20636f6e747261637420697320616c72656160448201526d191e481a5b9a5d1a585b1a5e995960921b60648201526084016104bb565b600054610100900460ff16158015611251576000805461ffff19166101011790555b6112596115b8565b611263838361166b565b8015611275576000805461ff00191690555b505050565b600054610100900460ff1680611293575060005460ff16155b6112f65760405162461bcd60e51b815260206004820152602e60248201527f496e697469616c697a61626c653a20636f6e747261637420697320616c72656160448201526d191e481a5b9a5d1a585b1a5e995960921b60648201526084016104bb565b600054610100900460ff16158015611318576000805461ffff19166101011790555b6113206115b8565b61135f826040518060400160405280600181526020017f3100000000000000000000000000000000000000000000000000000000000000815250611747565b61136882611818565b801561137a576000805461ff00191690555b5050565b6001600160a01b03811660009081526099602052604090208054600181018255905b50919050565b60006106a86113b3610f9c565b836040517f19010000000000000000000000000000000000000000000000000000000000006020820152602281018390526042810182905260009060620160405160208183030381529060405280519060200120905092915050565b60007f7fffffffffffffffffffffffffffffff5d576e7357a4501ddfe92f46681b20a082111561148c5760405162461bcd60e51b815260206004820152602260248201527f45434453413a20696e76616c6964207369676e6174757265202773272076616c604482015261756560f01b60648201526084016104bb565b8360ff16601b14806114a157508360ff16601c145b6114f85760405162461bcd60e51b815260206004820152602260248201527f45434453413a20696e76616c6964207369676e6174757265202776272076616c604482015261756560f01b60648201526084016104bb565b6040805160008082526020820180845288905260ff871692820192909252606081018590526080810184905260019060a0016020604051602081039080840390855afa15801561154c573d6000803e3d6000fd5b5050604051601f1901519150506001600160a01b0381166115af5760405162461bcd60e51b815260206004820152601860248201527f45434453413a20696e76616c6964207369676e6174757265000000000000000060448201526064016104bb565b95945050505050565b600054610100900460ff16806115d1575060005460ff16155b6116345760405162461bcd60e51b815260206004820152602e60248201527f496e697469616c697a61626c653a20636f6e747261637420697320616c72656160448201526d191e481a5b9a5d1a585b1a5e995960921b60648201526084016104bb565b600054610100900460ff16158015611656576000805461ffff19166101011790555b8015611668576000805461ff00191690555b50565b600054610100900460ff1680611684575060005460ff16155b6116e75760405162461bcd60e51b815260206004820152602e60248201527f496e697469616c697a61626c653a20636f6e747261637420697320616c72656160448201526d191e481a5b9a5d1a585b1a5e995960921b60648201526084016104bb565b600054610100900460ff16158015611709576000805461ffff19166101011790555b825161171c9060369060208601906118ef565b5081516117309060379060208501906118ef565b508015611275576000805461ff0019169055505050565b600054610100900460ff1680611760575060005460ff16155b6117c35760405162461bcd60e51b815260206004820152602e60248201527f496e697469616c697a61626c653a20636f6e747261637420697320616c72656160448201526d191e481a5b9a5d1a585b1a5e995960921b60648201526084016104bb565b600054610100900460ff161580156117e5576000805461ffff19166101011790555b82516020808501919091208351918401919091206065919091556066558015611275576000805461ff0019169055505050565b600054610100900460ff1680611831575060005460ff16155b6118945760405162461bcd60e51b815260206004820152602e60248201527f496e697469616c697a61626c653a20636f6e747261637420697320616c72656160448201526d191e481a5b9a5d1a585b1a5e995960921b60648201526084016104bb565b600054610100900460ff161580156118b6576000805461ffff19166101011790555b7f6e71edae12b1b97f4d1f60370fef10105fa2faae0126114a169c64845d6126c9609a55801561137a576000805461ff00191690555050565b8280546118fb90611ca0565b90600052602060002090601f01602090048101928261191d5760008555611963565b82601f1061193657805160ff1916838001178555611963565b82800160010185558215611963579182015b82811115611963578251825591602001919060010190611948565b5061196f929150611973565b5090565b5b8082111561196f5760008155600101611974565b60008083601f840112611999578182fd5b50813567ffffffffffffffff8111156119b0578182fd5b6020830191508360208285010111156119c857600080fd5b9250929050565b6000602082840312156119e0578081fd5b81356119eb81611d06565b9392505050565b600060208284031215611a03578081fd5b81516119eb81611d06565b60008060408385031215611a20578081fd5b8235611a2b81611d06565b91506020830135611a3b81611d06565b809150509250929050565b600080600060608486031215611a5a578081fd5b8335611a6581611d06565b92506020840135611a7581611d06565b929592945050506040919091013590565b600080600080600080600060e0888a031215611aa0578283fd5b8735611aab81611d06565b96506020880135611abb81611d06565b95506040880135945060608801359350608088013560ff81168114611ade578384fd5b9699959850939692959460a0840135945060c09093013592915050565b60008060408385031215611b0d578182fd5b8235611b1881611d06565b946020939093013593505050565b60008060008060608587031215611b3b578384fd5b8435611b4681611d06565b935060208501359250604085013567ffffffffffffffff80821115611b69578384fd5b818701915087601f830112611b7c578384fd5b813581811115611b8a578485fd5b8860208260051b8501011115611b9e578485fd5b95989497505060200194505050565b600080600080600060608688031215611bc4578081fd5b853567ffffffffffffffff80821115611bdb578283fd5b611be789838a01611988565b90975095506020880135915080821115611bff578283fd5b50611c0c88828901611988565b96999598509660400135949350505050565b6000602080835283518082850152825b81811015611c4a57858101830151858201604001528201611c2e565b81811115611c5b5783604083870101525b50601f01601f1916929092016040019392505050565b60008219821115611c8457611c84611cf0565b500190565b600082821015611c9b57611c9b611cf0565b500390565b600181811c90821680611cb457607f821691505b602082108114156113a057634e487b7160e01b600052602260045260246000fd5b6000600019821415611ce957611ce9611cf0565b5060010190565b634e487b7160e01b600052601160045260246000fd5b6001600160a01b038116811461166857600080fdfea26469706673582212201c747e9c28924443b3f0d8c6210bf2c963a166942bab76f6b092794607012af064736f6c63430008040033",
  "linkReferences": {},
  "deployedLinkReferences": {}
}